:100000000C9448010C946E010C946E010C94EF0852
:100010000C946E010C94C7080C946E010C946E0144
:100020000C946E010C946E010C946E010C946E0194
:100030000C946E010C946E010C946E010C946E0184
:100040000C946A0C0C946E010C94B90E0C946E0115
:100050000C946E010C946E010C946E010C946E0164
:100060000C946E010C946E012C08690C526561644D
:100070003A20007477656574206661696C00747756
:10008000656574206F6B00426F74616E6963616CAB
:100090006C73303133383A536E754666795F7265EA
:1000A00065626F6B380049443A2000322E313500CA
:1000B000426F74616E6963616C6C73207600000A34
:1000C000446973636F6E6E65637465642E2E2E00D3
:1000D0000A7374617475733D000A73746174757387
:1000E0003D00436F6E74656E742D4C656E67746869
:1000F0003A2000436F6E74656E742D4C656E6774A4
:10010000683A2000417574686F72697A6174696F2A
:100110006E3A2042617369632000417574686F72A2
:10012000697A6174696F6E3A204261736963200075
:100130003132382E3132312E3134362E31303000DA
:10014000486F73743A20003132382E3132312E31FB
:1001500034362E31303000486F73743A2000204816
:100160005454502F312E31002F73746174757365A0
:10017000732F7570646174652E786D6C00504F53E9
:1001800054200020485454502F312E31002F7374C6
:100190006174757365732F7570646174652E786D05
:1001A0006C00504F53542000556E6B6E6F776E206D
:1001B0006572726F7200436F6E6E65637465642E54
:1001C0002E2E004661696C656420746F20636F6E2B
:1001D0006E6563740054696D6564206F7574206F7B
:1001E0006E20636F6E6E65637400756E6B6E6F77F5
:1001F0006E206572726F72005265736574204F4B8A
:10020000210042616420726573706F6E7365206FA8
:100210006E207265736574210054696D6564206F8A
:100220007574206F6E207265736574212043686554
:10023000636B2058506F727420636F6E666967201D
:1002400026204950000000000700020100000304BE
:100250000600000000000000000102040810204019
:100260008001020408102001020408102004040484
:10027000040404040402020202020203030303034F
:10028000030000232629000025282B000024272A0C
:1002900011241FBECFEFD4E0DEBFCDBF12E0A0E03F
:1002A000B1E0EAE5F3E202C005900D92AA32B1078F
:1002B000D9F714E0AAE2B2E001C01D92A033B10761
:1002C000E1F710E0CCE6D0E004C02297FE010E94E6
:1002D000A911C836D107C9F70C9415080C94000071
:1002E0009F92AF92BF92CF92DF92EF92FF920F93C5
:1002F0001F93CF93DF93982E5B016A01C0E0D0E09B
:1003000016C061E0892D0E94F40D76010027F7FCEC
:100310000095102FC801B7010E94A70C60E0892D3D
:100320000E94F40DC801B7010E94A70C2196CA15BE
:10033000DB053CF3DF91CF911F910F91FF90EF9080
:10034000DF90CF90BF90AF909F900895BC0181E067
:100350006C32780754F442E350E066E070E089E0E4
:100360000E94700168E070E012C081E0693A78078D
:1003700054F444EF51E062E070E089E00E947001C3
:1003800068E170E004C0759567957595679589E09B
:100390000E94390D08950F931F93CF93DF938C0123
:1003A000C0E0D0E018C082E392E00E946D08219680
:1003B000882339F061E086E00E94F40D81E090E04E
:1003C00013C060E086E00E94F40D61E070E080E020
:1003D00090E00E94A70CC017D10729F761E086E0E2
:1003E0000E94F40D80E090E0DF91CF911F910F917A
:1003F0000895EF92FF921F93CF93DF937C0110E05B
:10040000C9E3D2E014C082E392E00E9454088883DA
:100410001F5F8A3019F021961F3F49F4212F33279F
:10042000F901E75CFD4F1082109236020EC0C70141
:100430000E94CB01882339F7212F3327F901E75C8C
:10044000FD4F108282E080933602C901DF91CF9187
:100450001F91FF90EF90089568EC70E080E090E0CD
:100460000E94A70C61E084E00E94F40D80E29EE40B
:100470000E94CB01882319F482E090E0089582E382
:1004800092E00E945408843419F083E090E00895CB
:1004900080E090E0089585E00E94AB0D99270895D3
:1004A000CF93DF93EC0104C082E392E00E945408F2
:1004B000CE010E94CB018823B9F7DF91CF91089537
:1004C0006F927F928F929F92AF92BF92CF92DF9264
:1004D000EF92FF920F931F93CF93DF93CDB7DEB7C9
:1004E000C554D0400FB6F894DEBF0FBECDBF5C013F
:1004F0007B01DE011596E0E0F1E081E401900D92D0
:100500008150E1F7F50101900020E9F73197CF0123
:100510008A199B0963E070E00E944311282F882309
:1005200081F080E090E0AE014F5F5F4F6DE305C06A
:10053000FA01E30FF11D60832F5F382F01962330FE
:10054000B8F3FE01E30FF11D1182CC24DD24A5E0F8
:100550008A2E912C8C0E9D1E80C0B501600F711FDC
:10056000DB018C91992787FD9095A92FB92F222720
:10057000382F492F5A2FFB018181992787FD9095AC
:10058000A92FB92F280F391F4A1F5B1FC8010296D8
:100590006816790618F4207040705070542F432F5D
:1005A000322F2227FB018281992787FD9095A92F61
:1005B000B92F280F391F4A1F5B1F0F5F1F4F60168F
:1005C000710610F420705070F701ED0DF11DDA0185
:1005D000C90172E1B695A795979587957A95D1F758
:1005E0008F739070880D991DDC018C918083D3945A
:1005F000F701ED0DF11DDA01C9016CE0B695A79583
:10060000979587956A95D1F78F739070880D991D8E
:10061000DC018C918083D394F701ED0DF11DDA019B
:10062000C90146E0B695A795979587954A95D1F764
:100630008F739070880D991DDC018C918083D39409
:10064000D701AD0DB11DF901EF73F070E80DF91D83
:1006500080818C93D394B3E0CB0E0C2D1127F50140
:1006600001900020E9F73F010894610871086A18B9
:100670007B080615170508F470CFDE011196FD0101
:1006800001900020E9F73197EA1BFB0B1D2D1E1B83
:1006900060E070E0AD010D900020E9F79D01215070
:1006A0003040241B350B06C0EE0DFF1DA40FB51FF7
:1006B0008C918083862F962F910F6F5F7F4FA82F8D
:1006C000BB27E92FFF27A217B30770F3EE0DFF1D1D
:1006D0001082B70183EA93E00E94CE0BCB5BDF4F21
:1006E0000FB6F894DEBF0FBECDBFDF91CF911F9143
:1006F0000F91FF90EF90DF90CF90BF90AF909F90C1
:100700008F907F906F900895982F8091C00085FF03
:10071000FCCF9093C6000895FF920F931F93CF9341
:10072000DF938C01F62EC0E0D0E002C00E9484036B
:10073000F801EC0FF11D849121968823B9F7FF2071
:1007400031F08AE00E9484038DE00E948403DF91EF
:10075000CF911F910F91FF900895CF92DF92EF926A
:10076000FF920F931F938C016A017B0163E482E384
:1007700092E00E94530AB80182E392E00E947B0B50
:100780006FE282E392E00E94530AB701A60182E37E
:1007900092E00E94420B88E893E10E94CB018823FB
:1007A00019F482E090E01DC082E392E00E945408B8
:1007B000182F60E08CE690E00E948C03412F5527B3
:1007C00047FD5095652F752F20E130E083EA93E0D7
:1007D0000E943A0C133419F083E090E002C080E0EC
:1007E00090E01F910F91FF90EF90DF90CF900895D0
:1007F000882331F061E08EE790E00E948C03089539
:1008000061E083E790E00E948C0344EF51E062E0F6
:1008100070E08AE00E947001089561E08DE00E941E
:100820008D0D61E088E00E948D0D61E089E00E94FD
:100830008D0D61E08AE00E948D0D60E08CE00E94E9
:100840008D0D61E08CE00E94F40DE9E4F3E011927B
:10085000119283E0ED35F807D1F761E088E00E945E
:10086000F40D80E00E941B0D90933A0380933903AE
:1008700060E088E00E94F40D40E855E260E070E03E
:1008800083EA93E00E949B0B40E855E260E070E051
:1008900082E392E00E94180961E08EEB90E00E94F2
:1008A0008C0360E080EB90E00E948C0361E08BEAB7
:1008B00090E00E948C038CE00E94AB0D892B51F4D8
:1008C00060E086EA90E00E948C0361E087E890E0B7
:1008D0000E948C0361E084E00E948D0D60E085E061
:1008E0000E948D0D61E086E00E948D0D60E087E042
:1008F0000E948D0D48EC50E062E070E08AE00E94BA
:10090000700168EC70E080E090E00E94A70C48EC79
:1009100050E061E070E08AE00E94700168EC70E0F5
:1009200080E090E00E94A70C48EC50E065E070E0A9
:100930008AE00E94700164E270E089E00E94390D53
:100940000895682F82E392E00E94530A0895FF926F
:100950000F931F93CF93DF938C01F62EC0E0D0E06E
:1009600002C00E94A104F801EC0FF11D84912196B0
:100970008823B9F7FF2019F08AE00E94A104DF91D3
:10098000CF911F910F91FF9008951F93CF93DF9305
:10099000EC0168E470E08AE00E94390D0E942C02AC
:1009A000823029F0833071F08823D9F02EC044EFD3
:1009B00051E064E070E08AE00E94700161E089E14A
:1009C00092E00AC044EF51E066E070E08AE00E94E5
:1009D000700161E082E092E00E948C0380E090E090
:1009E00002C161E088EF91E00E948C0340E550E095
:1009F00060E070E081E491E00E94AD03823081F01C
:100A00008330C9F0882311F1C0C044EF51E068E0A1
:100A100070E08AE00E94700161E08AEE91E0DCCF34
:100A200044EF51E06AE070E08AE00E94700161E00A
:100A300085ED91E0D1CF44EF51E06CE070E08AE0C9
:100A40000E94700161E083EC91E0C6CF61E086EB2B
:100A500091E00E948C0369E372E081E591E00E94DD
:100A6000600260E082EA91E00E94A70460E08DE805
:100A700091E00E94A70461E083E891E00E94A7044E
:100A800060E08DE791E00E948C0360E088E691E0F1
:100A90000E948C0361E08EE591E00E948C0360E08F
:100AA00087E591E00E94A70461E087E491E00E945D
:100AB000A70460E080E491E00E948C0361E080E3A1
:100AC00091E00E948C0360E08AE191E00E94A7041B
:100AD00060E084E091E00E948C0369E372E082E3CD
:100AE00092E00E948E0B69E372E083EA93E00E9439
:100AF000CE0B60E083EF90E00E94A704FE0101901E
:100B00000020E9F7CF0101978C1B9D0B0796AA27C0
:100B1000BB272AE030E0AC01BD0182E392E00E94F5
:100B20005D0B60E082EE90E00E948C03FE0101907C
:100B30000020E9F7CF0101978C1B9D0B0796AA2790
:100B4000BB272AE030E0AC01BD0183EA93E00E94BC
:100B50004A0C60E089ED90E00E94A704BE0182E3A8
:100B600092E00E948E0B60E080ED90E00E948C038A
:100B7000BE0183EA93E00E94CE0B60E771E082E35E
:100B800092E00E947B0B10E00BC044EF51E06CE060
:100B900070E08AE00E94700161E088EA91E01CCF79
:100BA00088EB9BE00E94F90169E372E083EA93E03D
:100BB0000E94AE0B61E771E089E392E00E94F510BC
:100BC0008953924009F411E080913602823041F756
:100BD0000E944B02882321F361E08FEB90E00E949A
:100BE0008C03812F9927DF91CF911F910895EF9268
:100BF000FF920F931F93CF93DF938CE00E94AB0D76
:100C0000892B09F08CC080918101813009F087C067
:100C100061E088E00E94F40D80E00E941B0D7C01E1
:100C200060E088E00E94F40D61E070E084E090E014
:100C30000E94CB0FEC010027F7FC0095102FC80194
:100C4000B70128E030E040E050E00E948C11DA016A
:100C5000C9014AE050E0BE010E941211FE0101905C
:100C60000020E9F73197EC1BFD0B61E070E0CF014C
:100C700045960E94CB0F7C0162E871E00E94EA1069
:100C8000BE01C7010E94EA1065E971E0C7010E9438
:100C9000EA1090E080915D03882309F491E090933D
:100CA0005D03992329F067E971E0C7010E94EA100A
:100CB000C7010E94C504182FC7010E948A10CE01E7
:100CC0000E948A10812F0E94F8038CE00E94AB0DD5
:100CD000892B29F560E084E00E94F40D48EE53E092
:100CE00064E070E08AE00E94700161E070E086E0FC
:100CF00090E00E94CB0F8C0169E971E00E94EA103C
:100D00006BE971E0C8010E94EA10C8010E94C504A5
:100D1000F82EC8010E948A108F2D0E94F8038CE0E3
:100D20000E94AB0D80938101DF91CF911F910F91B4
:100D3000FF90EF900895CF93DF930E948F0C209146
:100D40004103309142034091430350914403621B9D
:100D5000730B840B950B68547E4E8040904008F4D2
:100D600090C061E088E00E94F40D80E00E941B0DBD
:100D7000EC0160E088E00E94F40D0E948F0C60930B
:100D8000410370934203809343039093440360EACA
:100D900071E083EA93E00E94AE0BAE01662757FD37
:100DA0006095762F2AE030E083EA93E00E944A0CB7
:100DB0002091390330913A03C9018D589F4FC817CC
:100DC000D9070CF451C082E0CF33D8076CF1295A0F
:100DD0003140B4F40E948F0C20913D0330913E03CA
:100DE00040913F03509140032F5F3F4F4F4F5F4F64
:100DF0002617370748075907E0F58AEA91E030C01F
:100E00000E948F0C20913D0330913E0340913F039F
:100E1000509140032F5F3F4F4F4F5F4F26173707CB
:100E20004807590708F504C0295A3140ECF403C0BB
:100E300085EC91E015C00E948F0C20913D0330910C
:100E40003E0340913F03509140032F5F3F4F4F4F70
:100E50005F4F261737074807590730F48AED91E0AE
:100E60000E94C5040E94F803D0933A03C09339034B
:100E700008C08091390390913A03895A9140A4F3B4
:100E8000BFCFDF91CF910895CF93DF930E948F0C56
:100E90002091450330914603409147035091480308
:100EA000621B730B840B950B685C7243804090400F
:100EB00008F4A8C0E9E5F3E08081918193838283FF
:100EC000329783E0E734F807B9F761E088E00E94E1
:100ED000F40D80E00E941B0D90934A038093490318
:100EE00060E088E00E94F40D0E948F0C609345033F
:100EF00070934603809347039093480340E050E08B
:100F0000E9E4F3E081919191480F591F23E0ED3519
:100F1000F207C1F72091F6013091F7012A3031052F
:100F200064F4CA01B9010E945711EB012F5F3F4FD2
:100F30003093F7012093F60106C0CA016AE070E021
:100F40000E945711EB0168EF71E083EA93E00E9481
:100F5000AE0BAE01662757FD6095762F2AE030E094
:100F600083EA93E00E944A0C81E0CC32D807DCF49B
:100F700080913B0390913C038C529140E4F00E949D
:100F80008F0C20913D0330913E0340913F035091DF
:100F900040032F5F3F4F4F4F5F4F261737074807DC
:100FA000590748F405C081E0C93AD80724F503C0C1
:100FB00080E092E01CC080913B0390913C03895AF1
:100FC0009140CCF00E948F0C20913D0330913E0364
:100FD00040913F03509140032F5F3F4F4F4F5F4F72
:100FE000261737074807590730F482E192E00E943C
:100FF000C5040E94F803D0933C03C0933B03CE0189
:101000000E94A601DF91CF9108950E9444070E949B
:101010009B060E94F70560E070E08AE00E94390DAF
:1010200060E084E00E94F40D0895CFEFD4E0DEBFCD
:10103000CDBF0E94D60C0E940D040E940508FDCF72
:101040006F5F7F4F41F4019731F442E063E082E348
:1010500092E00E94440808956FEF7FEF81E090E0F6
:101060000E942008089520E001972FEF8F3F9207FC
:10107000D9F70895FC016093A203409360031082A6
:101080001182128213820895FC016093A20340939F
:1010900060031082118212821382089560936003AC
:1010A00008956093A203089520916103222319F407
:1010B0008FEF9FEF08959091620330E0E32FFF27B9
:1010C000EE59FC4F818180833F5F3217B9F7215081
:1010D00020936103892F99270895809161039927AF
:1010E00008950F931F93CF93DF938091A2030E94E3
:1010F000AB0D892B09F046C080915E0390915F0390
:10110000089720E001972FEF8F3F9207D9F700E073
:10111000C0E0D0E080915E0390915F03880F991F3B
:10112000069710E0212F01972FEF8F3F9207D9F7F5
:101130008091A2030E94AB0D892B49F081E090E0E1
:101140000C2E02C0880F991F0A94E2F7082B2196F3
:10115000C830D105F9F680915E0390915F03880F46
:10116000991F01971FEF8F3F9107D9F78091610376
:10117000803440F4E82FFF27EE59FC4F00838F5F47
:1011800080936103DF91CF911F910F9108951F927A
:101190000F920FB60F9211242F933F934F935F93AB
:1011A0006F937F938F939F93AF93BF93EF93FF932F
:1011B0008091A203883010F40E947108FF91EF9192
:1011C000BF91AF919F918F917F916F915F914F915F
:1011D0003F912F910F900FBE0F901F9018951F9267
:1011E0000F920FB60F9211242F933F934F935F935B
:1011F0006F937F938F939F93AF93BF93EF93FF93DF
:101200008091A2038850863010F40E947108FF91EB
:10121000EF91BF91AF919F918F917F916F915F916E
:101220004F913F912F910F900FBE0F901F901895E7
:10123000CF92DF92EF92FF920F931F938C016A017E
:101240007B0161E0809160030E948D0D61E08091DF
:1012500060030E94F40D60E08091A2030E948D0D56
:1012600061E08091A2030E94F40DF801C082D18256
:10127000E282F382F0E0CF16FBE4DF06F0E0EF0657
:10128000F0E0FF0609F466C081E0C8168BE4D806DA
:1012900080E0E80680E0F806FCF4E0ECCE16E2E13F
:1012A000DE06E0E0EE06E0E0FE0609F459C0F0E8F4
:1012B000CF16F5E2DF06F0E0EF06F0E0FF0609F4F6
:1012C0004CC080E6C81689E0D80680E0E80680E0D9
:1012D000F80609F04BC047C0E0E0CE16E6E9DE06AE
:1012E000E0E0EE06E0E0FE0679F1F1E0CF16F6E987
:1012F000DF06F0E0EF06F0E0FF0654F482E1C816E6
:101300008AE7D80680E0E80680E0F80679F51FC095
:10131000E0E0CE16E1EEDE06E0E0EE06E0E0FE06FE
:1013200061F0F0E0CF16F2ECDF06F1E0EF06F0E05E
:10133000FF06E1F484E090E002C08EE090E090933C
:101340005F0380935E0316C088E190E0F8CF8FE1E1
:1013500090E0F5CF86E390E0F2CF81E790E0EFCF29
:1013600088EE90E0ECCF86ED91E0E9CF10925F033C
:1013700010925E039091A203983090F480916D00DA
:1013800021E030E002C0220F331F9A95E2F7822B52
:1013900080936D008091680084608093680017C01E
:1013A0009E30A8F48091680081608093680040912D
:1013B0006B00292F33272850304081E090E002C095
:1013C000880F991F2A95E2F7482B40936B00809174
:1013D0005E0390915F03880F991F20E001972FEF24
:1013E0008F3F9207D9F71F910F91FF90EF90DF90F9
:1013F000CF9008950F931F93CF93DF93FC01062F97
:1014000080819181A281B3810097A105B10509F482
:1014100045C0F89460E0809160030E94F40D8091D3
:101420005E0390915F03880F991F20E001972FEFD3
:101430008F3F9207D9F711E0C8E0D0E0802F9927BD
:10144000212F332782239323892B11F061E001C0E0
:1014500060E0809160030E94F40D80915E039091A2
:101460005F03880F991F20E001972FEF8F3F9207AE
:10147000D9F7110F219711F761E0809160030E9465
:10148000F40D789480915E0390915F03880F991F0B
:1014900020E001972FEF8F3F9207D9F7DF91CF918F
:1014A0001F910F9108950E94FA0908952F923F927B
:1014B0004F925F926F927F928F929F92AF92BF9264
:1014C000CF92DF92EF92FF920F931F93CF93DF9310
:1014D000CDB7DEB7A2970FB6F894DEBF0FBECDBF73
:1014E0009AA389A36A017B01411551056105710524
:1014F00021F460E30E94530A51C044245524320170
:10150000822E9924AA24BB241E010894211C311C7C
:101510008101040D151DC701B601A50194010E94AA
:101520006A11F80160830894411C511C611C711CF4
:10153000C701B601A50194010E946A1169017A01EF
:10154000211531054105510519F772010894E1088B
:10155000F108E20CF31CAA24BB24650113C0F701B7
:1015600060816A3010F4605D01C0695C89A19AA154
:101570000E94530A0894A108B108C108D108089430
:10158000E108F10888279927DC0184199509A60943
:10159000B709A816B906CA06DB0609F7A2960FB660
:1015A000F894DEBF0FBECDBFDF91CF911F910F9199
:1015B000FF90EF90DF90CF90BF90AF909F908F9073
:1015C0007F906F905F904F903F902F9008952AE00A
:1015D0000E94560A0895AB01662777270E94E70A02
:1015E00008950F931F938C016DE00E94530A6AE0E7
:1015F000C8010E94530A1F910F9108950F931F93E2
:101600008C010E94E70AC8010E94F10A1F910F9104
:1016100008950F931F938C010E94FA09C8010E943C
:10162000F10A1F910F9108950F931F938C010E944F
:10163000530AC8010E94F10A1F910F910895EF9279
:10164000FF920F931F93CF93DF93EC017A018B01ED
:1016500077FF0BC06DE20E94530A10950095F0943D
:10166000E094E11CF11C011D111D2AE0B801A70145
:10167000CE010E94560ADF91CF911F910F91FF90EA
:10168000EF9008950F931F938C010E941F0BC801C8
:101690000E94F10A1F910F9108952115310521F43F
:1016A000642F0E94530A08952A30310519F40E94CC
:1016B0001F0B08950E94560A08950F931F938C01E3
:1016C0000E944D0BC8010E94F10A1F910F910895CD
:1016D000AB01662757FD6095762F0E941F0B08957A
:1016E0000F931F938C010E94680BC8010E94F10A9E
:1016F0001F910F9108950F931F93CF93DF938C0148
:10170000EB0104C02196C8010E94530A6881662338
:10171000C9F7DF91CF911F910F9108950F931F93F8
:101720008C010E947B0BC8010E94F10A1F910F914E
:10173000089508950895CB01BA010E943F0E0895BF
:101740000E94800E992708950E94910E08950E948C
:10175000B00E0895862F0E94F70E0895CB010E94C7
:10176000FE0E0895862F0E94F70E08950F931F9383
:101770008C016DE00E94AA0B6AE0C8010E94AA0BCE
:101780001F910F9108950F931F938C010E94AA0B34
:10179000C8010E94B60B1F910F9108950F931F93DC
:1017A0008C010E94AE0BC8010E94B60B1F910F91D5
:1017B00008950F931F938C010E94B20BC8010E94E1
:1017C000B60B1F910F910895CB01BA01332744271F
:1017D00055270E940B0F08952AE00E94E40B0895FC
:1017E0000F931F938C010E94EC0BC8010E94B60B53
:1017F0001F910F910895AB01662777270E94EC0B8C
:1018000008950F931F938C010E94FB0BC8010E9447
:10181000B60B1F910F910895EF92FF920F931F93B4
:10182000CF93DF93EC017A018B0177FF0BC06DE260
:101830000E94AA0B10950095F094E094E11CF11C15
:10184000011D111D2AE0B801A701CE010E94E40B81
:10185000DF91CF911F910F91FF90EF9008950F931B
:101860001F938C010E940C0CC8010E94B60B1F91A3
:101870000F9108952115310521F4642F0E94AA0BC0
:1018800008952A30310519F40E940C0C08950E9425
:10189000E40B08950F931F938C010E943A0CC8012A
:1018A0000E94B60B1F910F910895AB01662757FD5B
:1018B0006095762F0E940C0C08950F931F938C0156
:1018C0000E94550CC8010E94B60B1F910F910895FC
:1018D000089508951F920F920FB60F9211248F93BF
:1018E0009F93AF93BF938091A8039091A903A09178
:1018F000AA03B091AB030196A11DB11D8093A8036B
:101900009093A903A093AA03B093AB03BF91AF91A7
:101910009F918F910F900FBE0F901F90189560911F
:10192000A8037091A9038091AA039091AB0327E0CB
:10193000660F771F881F991F2A95D1F72DE730E092
:1019400040E050E00E946A11CA01B9010895AF92C7
:10195000BF92CF92DF92EF92FF920F931F935B01A2
:101960006C010E948F0C7B018C010E948F0C6E1900
:101970007F09800B910B6A157B058C059D05A8F3EB
:101980001F910F91FF90EF90DF90CF90BF90AF909D
:101990000895019751F0880F991F880F991F02979A
:1019A0002FB7F8940197F1F72FBF0895789410920C
:1019B000A8031092A9031092AA031092AB0384B556
:1019C000826084BD84B5816084BD85B5826085BD3B
:1019D00085B5816085BDEEE6F0E080818160808321
:1019E000E1E8F0E080818260808380818160808393
:1019F000E0E8F0E0808181608083E1EBF0E08081CD
:101A000084608083E0EBF0E0808181608083EAE79E
:101A1000F0E0808184608083808182608083808127
:101A2000816080838081806880831092C1000895E6
:101A3000809323020895909123029295990F990F14
:101A4000907C8F70982B90937C0080917A008064BA
:101A500080937A0080917A0086FDFCCF20917800F7
:101A6000809179009927982F88273327822B932BF1
:101A700008951F93CF93DF93182FEB0161E00E942D
:101A80008D0DE12FFF27EB5BFD4F8491833051F4E7
:101A900080918000806880938000D0938900C093FB
:101AA000880037C0843051F4809180008062809338
:101AB0008000D0938B00C0938A002BC0813029F422
:101AC00084B5806884BDC7BD24C0823029F484B544
:101AD000806284BDC8BD1DC0863041F48091B000D5
:101AE00080688093B000C093B30013C0873041F486
:101AF0008091B00080628093B000C093B40009C0B0
:101B0000C038D10514F460E001C061E0812F0E946B
:101B1000F40DDF91CF911F910895282F3327C9012C
:101B2000875A9D4FFC01949123593D4FF9018491AF
:101B3000882381F0E82FFF27E557FD4FE491FF2729
:101B4000662329F48081909589238083089580817C
:101B5000892B80830895482F5527CA018B5B9D4FA1
:101B6000FC012491CA01875A9D4FFC01949143596D
:101B70005D4FFA0134913323A1F1222331F1233057
:101B800021F4809180008F7705C0243031F480915A
:101B900080008F7D8093800018C0213019F484B5B7
:101BA0008F7704C0223021F484B58F7D84BD0DC0B1
:101BB000263021F48091B0008F7705C0273029F4BA
:101BC0008091B0008F7D8093B000E32FFF27EF5707
:101BD000FD4FE491FF278081892319F081E090E097
:101BE000089580E090E00895482F5527CA018B5B47
:101BF0009D4FFC012491CA01875A9D4FFC0194918D
:101C000043595D4FFA0134913323C1F1222331F15D
:101C1000233021F4809180008F7705C0243031F487
:101C2000809180008F7D8093800018C0213019F44E
:101C300084B58F7704C0223021F484B58F7D84BDB4
:101C40000DC0263021F48091B0008F7705C0273079
:101C500029F48091B0008F7D8093B000E32FFF279F
:101C6000EA57FD4FE491FF27662329F48081909580
:101C70008923808308958081892B80830895EF9242
:101C8000FF920F931F937B018C0122E030E040E034
:101C900050E00E948C11205C3D4B404F5F4FCA01C9
:101CA000B901A80197010E948C1121503040404099
:101CB0005040BB2757FDBA95A52F942F832F2F5F38
:101CC0003F4F4F4F5F4F8093C50021502093C4007A
:101CD000E1ECF0E080818061808380818860808396
:101CE0008081806880831F910F91FF90EF9008950D
:101CF000982F8091C00085FFFCCF9093C600089577
:101D00008091A6039091A7032091A4033091A5038D
:101D1000821B930B80589F4F60E870E00E94571120
:101D200008954091A4035091A5038091A60390913A
:101D3000A7038417950719F48FEF9FEF0895FA0111
:101D4000E455FC4F2081CA01019660E870E00E94D2
:101D500057119093A5038093A403822F9927089588
:101D60008091A4039091A5039093A7038093A60369
:101D700008951F920F920FB60F9211242F933F9345
:101D80004F935F936F937F938F939F93AF93BF9383
:101D9000EF93FF934091C600E091A603F091A70353
:101DA000CF01019660E870E00E9457119C0180917C
:101DB000A4039091A5032817390739F0E455FC4F87
:101DC00040833093A7032093A603FF91EF91BF9127
:101DD000AF919F918F917F916F915F914F913F91C3
:101DE0002F910F900FBE0F901F90189508950E948D
:101DF000780E08958AE00E94F70E0895CF93DF933E
:101E0000EC0103C021960E94F70E88818823D1F748
:101E1000DF91CF9108952F923F924F925F926F92F0
:101E20007F928F929F92AF92BF92CF92DF92EF926A
:101E3000FF920F931F93CF93DF93CDB7DEB7A09799
:101E40000FB6F894DEBF0FBECDBF6B017C01190148
:101E50002A01611571058105910521F480E30E9435
:101E6000F70E4BC06624772443015E010894A11C41
:101E7000B11C8501060D171DC701B601A201910114
:101E80000E946A11F80160830894611C711C811C16
:101E9000911CC701B601A20191010E946A1169015A
:101EA0007A01211531054105510519F7730108948F
:101EB000E108F108EA0CFB1CAA24BB24650111C04F
:101EC000F70180818A3010F4805D01C0895C0E9436
:101ED000F70E0894A108B108C108D1080894E108D8
:101EE000F10888279927DC0186199709A809B909FB
:101EF000A816B906CA06DB0619F7A0960FB6F8941D
:101F0000DEBF0FBECDBFDF91CF911F910F91FF902C
:101F1000EF90DF90CF90BF90AF909F908F907F9089
:101F20006F905F904F903F902F900895EF92FF92A7
:101F30000F931F937B018C0197FF0BC08DE20E94D2
:101F4000F70E10950095F094E094E11CF11C011D32
:101F5000111D2AE030E040E050E0C801B7010E94C6
:101F60000B0F1F910F91FF90EF90089520E130E04B
:101F700040E050E00E940B0F089528E030E040E080
:101F800050E00E940B0F089522E030E040E050E066
:101F90000E940B0F08950F931F93CF93DF93869F9B
:101FA0008001879F100D969F100D1124C8010E947B
:101FB000E70FEC01009729F0A80160E070E00E94B3
:101FC000E010CE01DF91CF911F910F910895CF9333
:101FD000DF93AC01029710F442E050E0A0912E0490
:101FE000B0912F04FD0120E030E0C0E0D0E020C03F
:101FF000808191818417950769F48281938120976C
:1020000019F09B838A8304C090932F0480932E043D
:10201000CF0132C04817590738F42115310519F09E
:102020008217930708F49C01EF010280F381E02DF1
:102030003097F1F62115310589F1C901841B950B03
:10204000049708F4A901E0E0F0E026C08D919C918E
:10205000119782179307E9F44817590779F4ED01AE
:102060008A819B81309719F09383828304C0909377
:102070002F0480932E04CD01029649C0841B950B3A
:10208000FD01E80FF91F4193519302978D939C93A3
:102090003AC0FD01A281B3811097C1F680912C0452
:1020A00090912D04892B41F4809126029091270272
:1020B00090932D0480932C042091240230912502CA
:1020C0002115310541F42DB73EB78091280290913A
:1020D0002902281B390BE0912C04F0912D042E1BB2
:1020E0003F0B2417350788F0CA01029628173907D5
:1020F00060F0CF01840F951F029690932D0480937A
:102100002C0441935193CF0102C080E090E0DF9115
:10211000CF910895CF93DF93009709F44EC0EC015F
:1021200022971B821A82A0912E04B0912F0410973F
:1021300011F140E050E001C0DC01AC17BD0700F137
:10214000BB83AA83FE0121913191E20FF31FEA17AD
:10215000FB0771F48D919C911197280F391F2E5F09
:102160003F4F39832883FD01828193819B838A833A
:102170004115510559F4D0932F04C0932E041DC06E
:10218000FD0182819381AD010097B1F6FA01D383FD
:10219000C28321913191E20FF31FEC17FD0769F41F
:1021A00088819981280F391F2E5F3F4FFA013183B3
:1021B00020838A819B8193838283DF91CF910895CD
:1021C000DC0140FF03C001C06D936D93425050404D
:1021D000D8F70895FB01DC010D900020E9F7119775
:1021E00001900D920020E1F70895DC01FB0141917F
:1021F000442309F40895FB0141912D91222369F0B4
:102200002417CD01D1F74191442351F02C91222381
:1022100021F0241781F71196F6CF88279927089582
:1022200001970895FB019F01E8944230C4F04532C4
:10223000B4F44A3029F497FB1EF4909581959F4F92
:10224000642F77270E944311805D8A330CF0895DEB
:102250008193CB010097A1F716F45DE251931082B0
:10226000C9010C943311DC01FC0101900020E9F755
:102270003297AE17BF0730F47C916081708331973D
:102280006D93F7CF0895AA1BBB1B51E107C0AA1F8E
:10229000BB1FA617B70710F0A61BB70B881F991F07
:1022A0005A95A9F780959095BC01CD01089597FBAB
:1022B000092E07260AD077FD04D0E5DF06D00020DE
:1022C0001AF4709561957F4F0895F6F79095819572
:1022D0009F4F0895A1E21A2EAA1BBB1BFD010DC042
:1022E000AA1FBB1FEE1FFF1FA217B307E407F507C6
:1022F00020F0A21BB30BE40BF50B661F771F881FA2
:10230000991F1A9469F760957095809590959B0137
:10231000AC01BD01CF01089597FB092E05260ED013
:1023200057FD04D0D7DF0AD0001C38F450954095F3
:10233000309521953F4F4F4F5F4F0895F6F7909599
:102340008095709561957F4F8F4F9F4F0895EE0F49
:0A235000FF1F0590F491E02D0994A1
:10235A004142434445464748494A4B4C4D4E4F50EB
:10236A005152535455565758595A616263646566B7
:10237A006768696A6B6C6D6E6F707172737475766B
:10238A007778797A303132333435363738392B2FFA
:10239A00003132382E3132312E3134362E3130304E
:1023AA0000426F74616E6963616C6C7330313338EB
:1023BA003A536E754666795F726565626F6B38006F
:1023CA0000485454502F312E3120323030204F4B98
:1023DA00000143757272656E74204D6F697374756E
:1023EA0072653A200025002E007600322E31350023
:1023FA00776174657265643A20005468616E6B2077
:10240A00796F7520666F72207761746572696E677D
:10241A00206D652100596F75206F7665722077618E
:10242A007465726564206D652E00596F7520646944
:10243A00646E2774207761746572206D6520656EFD
:10244A006F7567682E0001006D6F6973743A20001A
:10245A00555247454E5421205761746572206D6567
:10246A0021005761746572206D6520706C65617317
:0A247A00652E000100003004200070
:00000001FF
